:100000000C9435000C945D000C945D000C945D0024
:100010000C945D000C945D000C945D000C945D00EC
:100020000C945D000C945D000C945D000C945D00DC
:100030000C945D000C945D000C945D000C945D00CC
:100040000C94D0030C945D000C945D000C945D0046
:100050000C945D000C945D000C945D000C945D00AC
:100060000C945D000C945D001F0611241FBECFEFA1
:10007000D8E0DEBFCDBF11E0A0E0B1E0EEE6FDE0EC
:1000800002C005900D92A232B107D9F724E0A2E296
:10009000B1E001C01D92A53EB207E1F710E0C5E353
:1000A000D0E004C02197FE010E949B06C433D10713
:1000B000C9F70E941A040C94B5060C9400003FB7CF
:1000C000F8948091E1049091E204A091E304B0914E
:1000D000E40426B5A89B05C02F3F19F00196A11D89
:1000E000B11D3FBFBA2FA92F982F8827820F911DCE
:1000F000A11DB11DBC01CD0142E0660F771F881F15
:10010000991F4A95D1F7089580E991E008950F93DA
:100110001F93CF93DF93209123012F5F322F3770EE
:100120003093230120FF02C020E801C020E031FD10
:100130002064347009F02062205FFC01EC012396FA
:1001400000E011E06485662331F070E0C8010E9490
:100150003F066F5F01C060E06187322F369F030E5C
:1001600030E0311D1124311102C0168202C031501D
:100170003683662311F0615061873196CE17DF0711
:1001800009F7DF91CF911F910F9108954F925F92E0
:100190006F927F928F929F92AF92CF92DF92EF9267
:1001A000FF920F931F93CF93DF933C01EB010E94CB
:1001B0005F00F30127853089621B730B6A3071057C
:1001C000B0F3F894E881F98105B1006215B11F7DA3
:1001D00015B9CA848F814C2D481B842F4F839F846F
:1001E0004A805B80FD84EC84DE84F394E394D394B2
:1001F0009E8138858984AB844181D20120E0622FC1
:10020000722F7181442788947111780F08F47FEF61
:1002100081958894F0FC470F47958894F1FC470F2F
:1002200047958894F2FC470F47958894F3FC470F55
:1002300047958894F4FC470F47958894F5FC470F41
:1002400047958894F6FC470F47958894F7FC470F2D
:1002500047958894272FF110242F8C0D422F002CC6
:1002600005B900C047FF15B970812227889400C0E6
:1002700000C0002C15B97111790F00C0002C05B910
:1002800000C046FF15B908F47FEF9195889400C02F
:1002900000C0002C15B9E0FC270F00C0002C05B9E8
:1002A00000C045FF15B927958894E1FC270F00C0D1
:1002B00000C0002C15B92795889400C0002C05B902
:1002C00000C044FF15B9E2FC270F2795889400C0B1
:1002D00000C0002C15B9E3FC270F00C0002C05B9A5
:1002E00000C043FF15B927958894E4FC270F00C090
:1002F00000C0002C15B92795889400C0002C05B9C2
:1003000000C042FF15B9E5FC270F2795889400C06F
:1003100000C0002C15B9E6FC270F00C0002C05B961
:1003200000C041FF15B927958894E7FC270F00C04E
:1003300000C0002C15B92795889400C0002C05B981
:1003400000C040FF15B9472FE110422F980D00C0A3
:1003500000C0002C15B900C000C0002C05B900C0B9
:1003600047FF15B972812227889400C000C0002C75
:1003700015B97111730F00C0002C05B900C046FFFC
:1003800015B908F47FEFE90DF11D00C000C0002C85
:1003900015B9D0FC270F00C0002C05B900C045FFDF
:1003A00015B927958894D1FC270F00C000C0002CF8
:1003B00015B92795889400C0002C05B900C044FFEA
:1003C00015B9D2FC270F2795889400C000C0002CD7
:1003D00015B9D3FC270F00C0002C05B900C043FF9E
:1003E00015B927958894D4FC270F00C000C0002CB5
:1003F00015B92795889400C0002C05B900C042FFAC
:1004000015B9D5FC270F2795889400C000C0002C93
:1004100015B9D6FC270F00C0002C05B900C041FF5C
:1004200015B927958894D7FC270F00C000C0002C71
:1004300015B92795889400C0002C05B900C040FF6D
:1004400015B9472FD110422F319500C000C0002CA4
:1004500015B93A0D00C000C005B900C047FF15B975
:1004600071812227889400C000C0002C15B9711139
:10047000780F00C0002C05B900C046FF15B908F47C
:100480007FEF8195889400C000C0002C15B9F0FC66
:10049000270F00C0002C05B900C045FF15B92795EE
:1004A0008894F1FC270F00C000C0002C15B92795D7
:1004B000889400C0002C05B900C044FF15B9F2FCB7
:1004C000270F2795889400C000C0002C15B9F3FCB5
:1004D000270F00C0002C05B900C043FF15B92795B0
:1004E0008894F4FC270F00C000C0002C15B9279594
:1004F000889400C0002C05B900C042FF15B9F5FC76
:10050000270F2795889400C000C0002C15B9F6FC71
:10051000270F00C0002C05B900C041FF15B9279571
:100520008894F7FC270F00C000C0002C15B9279550
:10053000889400C0002C05B900C040FF15B9472FB2
:10054000F110422F8C0D00C000C0002C15B911977E
:1005500009F086CE20EE31E0D2010E947506DC0162
:10056000CB01F4E0B695A79597958795FA95D1F7C5
:1005700020E030E0B901EAE94E9E040C611D5E9E68
:10058000600D711D1124650D711D860F971FA11D32
:10059000B11D893EE3E09E07A105B10508F434C012
:1005A000885E9340A109B10942E0B695A795979559
:1005B00087954A95D1F747E0849F080E211D949FA7
:1005C000200D311D1124290F311D6091220170E091
:1005D000860F971F820F931F4091DD045091DE0418
:1005E0006091DF047091E004292F3327420F531FDD
:1005F000611D711D4093DD045093DE046093DF04A0
:100600007093E0048093220178940E945F00F301CC
:10061000708B6787DF91CF911F910F91FF90EF90C3
:10062000DF90CF90AF909F908F907F906F905F9072
:100630004F900895259A08950F931F93CF93DF93BA
:10064000CDB7DEB762970FB6F894DEBF0FBECDBF51
:100650008C01F901DC011C968C917A8369835C839F
:100660004B835E834D8390819D8791819E8792818C
:100670009F87813029F4CE0101960E94870006C031
:100680001C861B861A86198618861F8283E0888B33
:100690001A8A198AD801ED91FC910484F585E02D20
:1006A000BE016F5F7F4FC801099562960FB6F8943F
:1006B000DEBF0FBECDBFDF91CF911F910F91089587
:1006C0000F931F93CF93DF93CDB7DEB762970FB62B
:1006D000F894DEBF0FBECDBF8C01F901DC011C9682
:1006E0008C917A8369835C834B835E834D83908195
:1006F0009D8791819E8792819F87813029F4CE01C9
:1007000001960E94870006C01C861B861A861986E1
:1007100018861F82188A1A8A198AD801ED91FC91CD
:100720000484F585E02DBE016F5F7F4FC8010995F8
:1007300062960FB6F894DEBF0FBECDBFDF91CF91AA
:100740001F910F910895CF93DF9300D000D000D078
:10075000CDB7DEB7AB011C821D821E82DC01ED919C
:10076000FC910190F081E02D19821A821B829E017A
:100770002F5F3F4FBE016C5F7F4F099526960FB6E6
:10078000F894DEBF0FBECDBFDF91CF910895FC017D
:1007900085859685089580E090E008950E94B006D2
:1007A0001F920F920FB60F9211242F933F938F93A6
:1007B0009F93AF93BF938091DD049091DE04A0914D
:1007C000DF04B091E0043091DC0423E0230F2D37E7
:1007D00020F40196A11DB11D05C026E8230F029645
:1007E000A11DB11D2093DC048093DD049093DE04F1
:1007F000A093DF04B093E0048091E1049091E204BF
:10080000A091E304B091E4040196A11DB11D809371
:10081000E1049093E204A093E304B093E404BF9155
:10082000AF919F918F913F912F910F900FBE0F909D
:100830001F901895CF93DF9300D000D01F92CDB7B3
:10084000DEB7789484B5826084BD84B5816084BD50
:1008500085B5826085BD85B5816085BD80916E005E
:10086000816080936E00109281008091810082608F
:1008700080938100809181008160809381008091CC
:1008800080008160809380008091B10084608093BB
:10089000B1008091B00081608093B00080917A00B7
:1008A000846080937A0080917A00826080937A00DD
:1008B00080917A00816080937A0080917A008068CC
:1008C00080937A001092C10080913701811145C058
:1008D00010922901109228018FEF80932C018093B0
:1008E0002D0180932E0180932F01809330018093FE
:1008F000310181E080933201109234011092330172
:1009000010922B0110922A0180914501909146018D
:10091000892B31F486E291E0909346018093450162
:10092000E0912401F0912501309721F086E291E0D9
:100930009583848386E291E090932501809324013E
:10094000109236011092350184E191E090932701D5
:100950008093260181E080933701259A88E591E014
:1009600090932901809328018CE291E090933401C7
:100970008093330180914E0190914F01A0915001DD
:10098000B0915101843C29E09207A105B10520F402
:1009900084EC99E0A0E0B0E080934E0190934F0189
:1009A000A0935001B093510190EEB92EE12C8BEA47
:1009B000982EE8E5F1E02B2D35E5239F020E20E08F
:1009C000211D11243E2D44E6442321F0449F312D66
:1009D00009F03F5F332389F085E5820F292D239F9E
:1009E000020E20E0211D882331F0482F439F040E82
:1009F00040E0411D842F112402C080E020E02083CC
:100A00008183128233968CED94E08E179F0709F054
:100A1000D2CFF0904B0180914E0190914F01A09167
:100A20005001B0915101892B8A2B8B2BE9F00E9448
:100A30005F000091470110914801209149013091D8
:100A40004A01DC01CB01801B910BA20BB30B00917F
:100A50004E0110914F0120915001309151018017AA
:100A60009107A207B307B8F20E945F0060934701A5
:100A7000709348018093490190934A01E091560197
:100A8000F0915701309759F0409152015091530124
:100A900060915401709155018F2D0995F82E0091A8
:100AA0004501109146014F2C512C612C712C0115E0
:100AB000110509F467C0D8011C96AC901C97809171
:100AC0004C0190914D018436910510F41C961C92B6
:100AD000D801ED91FC91228133813D832C831982D1
:100AE0001A821B82F11019C0D8011D964D915C919C
:100AF0001E9712966D917C9113979E012F5F3F4F29
:100B0000C801EC81FD810995D8011C96AC921C9717
:100B100014960D911C911597CACFF80136969E0137
:100B20002F5F3F4F6901180139E0230E311C2191DD
:100B3000222309F182808820F1F0822F90E0A0E04A
:100B4000B0E09C01AD012F5F3F4F4F4F5F4FC3019E
:100B5000B2010E942F069B01AC01882D90E0A0E01D
:100B6000B0E0BC01CD016F5F7F4F8F4F9F4F0E9460
:100B70002F06D6018C93BFEFCB1ADB0AE215F305E3
:100B8000B1F6B2CF80914301909144019C012F5F57
:100B90003F4F309344012093430149970CF447C0E1
:100BA0008FB7F8940091DD041091DE042091DF04EA
:100BB0003091E0048FBF8091430190914401E8EEB1
:100BC000F3E08E9FB0018F9F700D9E9F700D1124DA
:100BD000072E000C880B990B40903F01509040016C
:100BE0006090410170904201A901980124193509D2
:100BF000460957090E94530630934D0120934C013A
:100C000010924401109243012FB7F8948091DD04B3
:100C10009091DE04A091DF04B091E0042FBF809397
:100C20003F0190934001A0934101B093420180E0C5
:100C300090E0892B09F4BDCE0E940000B8CEEBE411
:100C4000F1E08FEF808312821182148613868FEF7A
:100C50009FEFDC0187839087A187B2870895DB012E
:100C60008F939F930E947C06BF91AF91A29F800DAE
:100C7000911DA39F900DB29F900D1124089597FB95
:100C8000072E16F4009407D077FD09D00E9487063E
:100C900007FC05D03EF4909581959F4F089570957F
:100CA00061957F4F0895A1E21A2EAA1BBB1BFD017F
:100CB0000DC0AA1FBB1FEE1FFF1FA217B307E4073B
:100CC000F50720F0A21BB30BE40BF50B661F771F93
:100CD000881F991F1A9469F7609570958095909573
:100CE0009B01AC01BD01CF0108950E94A106B7FF91
:100CF0000895821B930B08950E94A106A59F900D55
:100D0000B49F900DA49F800D911D11240895AA1BDE
:100D1000BB1B51E107C0AA1FBB1FA617B70710F0E6
:100D2000A61BB70B881F991F5A95A9F78095909518
:100D3000BC01CD010895EE0FFF1F0590F491E02D49
:100D40000994A29FB001B39FC001A39F700D811DA4
:100D50001124911DB29F700D811D1124911D0895C4
:0E0D600081E090E0F8940C94B506F894FFCF73
:100D6E0000000000CE03CE03CE03A303C703CB03C4
:100D7E000000000060031C031A03A303C7038400D2
:020D8E00C6009D
:00000001FF
